:100000000C9453000C947C0D0C94550D0C947B00B7
:100010000C947B000C947B000C947B000C947B0074
:100020000C947B000C947B000C947B000C947B0064
:100030000C947B000C947B000C947B000C947B0054
:100040000C940B0D0C947B000C94D90C0C94B30CF9
:100050000C947B000C947B000C947B000C947B0034
:100060000C947B000C947B0000000000250028000D
:100070002B0000000000240027002A0004040404D0
:100080000404040402020202020203030303030342
:10009000010204081020408001020408102001021F
:1000A00004081020A30D11241FBECFEFD8E0DEBF3F
:1000B000CDBF12E0A0E0B1E0E6EDF9E202C00590AC
:1000C0000D92AA3BB107D9F726E0AAEBB2E001C036
:1000D0001D92A037B207E1F710E0C3E5D0E004C0FD
:1000E0002197FE010E949812C235D107C9F70E94DC
:1000F0006E0E0C94E9140C940000CF93DF9390E003
:10010000FC01E057FF4F2491FC01E458FF4F84911C
:100110008823C1F090E0880F991FFC01EE58FF4F33
:10012000C591D491FC01E859FF4FA591B4919FB7B7
:10013000F8943881822F809583238883EC91E22B79
:10014000EC939FBFDF91CF9108958091DB02909156
:10015000DC0201969093DC028093DB02089580918B
:10016000D7029091D80201969093D8028093D7023B
:100170000895CF92DF92EF92FF920F931F93CF9348
:10018000DF936C017A018B01C0E0D0E0CE15DF0572
:1001900089F0D8016D918D01D601ED91FC9101900E
:1001A000F081E02DC6010995892B11F47E0102C072
:1001B0002196ECCFC701DF91CF911F910F91FF9056
:1001C000EF90DF90CF900895089580E090E008953B
:1001D000FC01538D448D252F30E0842F90E0821B4D
:1001E000930B541710F0CF96089501970895FC01D2
:1001F000918D828D981761F0828DDF01A80FB11D5E
:100200005D968C91928D9F5F9F73928F90E0089581
:100210008FEF9FEF0895FC01918D828D981731F03B
:10022000828DE80FF11D858D90E008958FEF9FEF8F
:100230000895FC01918D228D892F90E0805C9F4F65
:10024000821B91098F73992708958DED92E00E948A
:10025000190121E0892B09F420E0822F0895FC0187
:10026000848DDF01A80FB11DA35ABF4F2C91848D3F
:1002700090E001968F739927848FA689B7892C9374
:10028000A089B1898C9180648C93938D848D98130F
:1002900006C00288F389E02D80818F7D80830895D8
:1002A000EF92FF920F931F93CF93DF93EC0181E0C6
:1002B000888F9B8D8C8D981305C0E889F989808182
:1002C00085FD24C0F62E0B8D10E00F5F1F4F0F73BE
:1002D0001127E02E8C8DE8120CC00FB607FCFACF68
:1002E000E889F989808185FFF5CFCE010E942F0131
:1002F000F1CF8B8DFE01E80FF11DE35AFF4FF08225
:100300000B8FEA89FB898081806207C0EE89FF89B3
:100310006083E889F98980818064808381E090E04E
:10032000DF91CF911F910F91FF90EF900895CF93A0
:10033000DF93EC01888D8823C9F0EA89FB898081ED
:1003400085FD05C0A889B9898C9186FD0FC00FB6BF
:1003500007FCF5CF808185FFF2CFA889B9898C9100
:1003600085FFEDCFCE010E942F01E7CFDF91CF9126
:10037000089580E090E0892B29F00E9425018111E9
:100380000C94000008953FB7F8948091C1029091B9
:10039000C202A091C302B091C40226B5A89B05C0B9
:1003A0002F3F19F00196A11DB11D3FBFBA2FA92FF4
:1003B000982F8827820F911DA11DB11DBC01CD0171
:1003C00042E0660F771F881F991F4A95D1F708955D
:1003D0002FB7F8946091BD027091BE028091BF0268
:1003E0009091C0022FBF08950895FC01EA54FD4F7B
:1003F00080810895AF92BF92CF92DF92EF92FF92E9
:100400000F931F93CF93DF9300D000D01F92CDB7EF
:10041000DEB78C016B01643671053CF0FC01EA54D7
:10042000FD4F8081882309F478C0DA01ED91FC91B9
:100430000190F081E02DB801695C7E4FCA010995F9
:100440007801B0EDEB1ABEEFFB0A2FEFF701208326
:100450002EEF3196208331968083319690833196AA
:10046000292F280F209520833196C082D801AA5CBD
:10047000BE4FDC9245E050E020E030E0BC016A5F16
:100480007F4F6417750734F0A1912A0F311D4F5F1C
:100490005F4FF7CF6C01F8E0CF0ED11C800F911F9A
:1004A000FC01E95CFE4F2095208329E1C21621E082
:1004B000D206CCF45701C5018E199F098C159D05F4
:1004C00084F4D80112968D919C911397F501619156
:1004D0005F01DC01ED91FC910190F081E02D099527
:1004E000EACFC6011CC082E491E09A83898383E04D
:1004F0008B838EE791E09D838C83D801ED91FC91F5
:100500000190F081E02DAE014F5F5F4F67E070E03A
:10051000C80109958FEF9FEF02C080E090E00F9037
:100520000F900F900F900F90DF91CF911F910F912F
:10053000FF90EF90DF90CF90BF90AF9008950F9312
:100540001F93CF93DF93CDB7DEB72A970FB6F894FA
:10055000DEBF0FBECDBF8C0186E391E09A83898315
:100560001B821C821D821E821F82188619861A8693
:10057000D801ED91FC910190F081E02DAE014F5F2B
:100580005F4F6AE070E0C80109950E94E801F80138
:1005900060877187828793872A960FB6F894DEBFAB
:1005A0000FBECDBFDF91CF911F910F910895CF92D4
:1005B000DF92EF92FF92FC0110821182128213826D
:1005C000DB0120E030E04D9150E0022E02C0440FEC
:1005D000551F0A94E2F7052E000C660B770BC080BE
:1005E000D180E280F3804C295D296E297F294083E8
:1005F000518362837383285F3F4F2032310519F79F
:10060000FF90EF90DF90CF900895CF92DF92EF921E
:10061000FF9220E030E06A017B01022E04C0F694D4
:10062000E794D794C7940A94D2F7FC01C192CF0102
:10063000285F3F4F2032310571F7FF90EF90DF9038
:10064000CF90089587EB91E0089588ED91E00895AB
:100650008F929F92AF92BF92CF92DF92EF92FF92D2
:100660000F931F93FC01DB011396CC901397C29458
:10067000C69497E0C9228C2C912CA12CB12C82829B
:100680009382A482B5821496CC901497D12CE12C3D
:10069000F12C23E0CC0CDD1CEE1CFF1C2A95D1F7BD
:1006A000C828D928EA28FB28C282D382E482F582AE
:1006B00015960C91159710E020E030E04BE0000F0C
:1006C000111F221F331F4A95D1F7C02AD12AE22ACF
:1006D000F32AC282D382E482F58216960C91169791
:1006E0000F7010E020E030E053E1000F111F221FD7
:1006F000331F5A95D1F70C291D292E293F29028332
:1007000013832483358316968C91169782958F7068
:1007100017964C9117974F7750E060E070E094E0A7
:10072000440F551F661F771F9A95D1F7482B411527
:1007300051056105710599F04058534061097109EF
:1007400087E1440F551F661F771F8A95D1F7402B0D
:10075000512B622B732B42835383648375831796CB
:100760008C91807890E0A0E0B0E0B82FAA2799277C
:1007700088274281538164817581842B952BA62B18
:10078000B72B82839383A483B58388E090E01F9185
:100790000F91FF90EF90DF90CF90BF90AF909F9020
:1007A0008F9008958F929F92AF92BF92CF92DF92D7
:1007B000EF92FF920F931F93CF93DF93EB01FC0116
:1007C00082809380A480B580D501C40177E1B5957E
:1007D000A795979587957A95D1F79927AA27BB274B
:1007E0000097A105B10521F080589C4FAF4FBF4F36
:1007F000188219821A82B501A40125E0440F551F01
:10080000661F771F2A95D1F74B83B501A40133E00A
:1008100075956795579547953A95D1F74C83B501EE
:10082000A401EBE07595679557954795EA95D1F743
:100830004D83AC01BD01F4E0440F551F661F771FC7
:10084000FA95D1F79501840153E1359527951795D0
:1008500007955A95D1F70F70402B4E836C017D019F
:1008600064E0F594E794D794C7946A95D1F720E0B3
:1008700030E0A901C501B4010E949D1087FD02C0AE
:10088000CF8203C08C2D80688F8388E090E0DF9159
:10089000CF911F910F91FF90EF90DF90CF90BF907D
:1008A000AF909F908F90089589EE91E008958AE02F
:1008B00091E008958AE092E008958BE292E0089535
:1008C0008F929F92AF92BF92CF92DF92EF92FF9260
:1008D0000F931F93CF93DF9300D000D0CDB7DEB737
:1008E0007C018B01FB018191BF01F7018283CE0165
:1008F00001960E94D70289819A81AB81BC814C010B
:100900005D01F5E08F0E911CA11CB11C680125E072
:10091000C20ED11CA601401B510B60E070E04815CF
:1009200059056A057B0548F4F60141916F019F0165
:1009300022503109F9014083EDCFF801E80FF91F8A
:1009400014820C5F1F4FF7011483038305960F90E9
:100950000F900F900F90DF91CF911F910F91FF900B
:10096000EF90DF90CF90BF90AF909F908F900895C1
:100970008EE392E008958FE592E008954F925F92A2
:100980006F927F928F929F92AF92BF92CF92DF929F
:10099000EF92FF920F931F93CF93DF93CDB7DEB704
:1009A0002C970FB6F894DEBF0FBECDBF7C018B0134
:1009B000DB018C9190E0F7019383828311962C9157
:1009C000922B938382836E5F7F4FCE0109960E94A4
:1009D000D70289849A84AB84BC84B501A4014A5FA0
:1009E0005F4F6F4F7F4FF8013696CF01801B910B01
:1009F000A0E0B0E084179507A607B70728F4819117
:100A0000DF0112978C93F1CFF801E80DF91D1582E3
:100A1000C8010596D70115969C938E931497B4013F
:100A20006A5F7F4F600F711FCE0105960E94D7024B
:100A3000BAE08B0E911C4D815E816F817885240117
:100A4000092C000C66087708440E551E661E771E9A
:100A5000F801E80DF91DCF01801B910BA0E0B0E07B
:100A600084159505A605B70528F48191DF01129735
:100A70008C93F1CF6401C40ED51EB8016C0D7D1DA1
:100A8000FB0131971082C4010197800F911FF7017C
:100A900097838683CE0101960E94D702A6014C5F00
:100AA0005F4F49805A806B807C804A01052E000C84
:100AB000AA08BB08840C951CA61CB71CF801E40FFF
:100AC000F51F9F01201B310BC901A0E0B0E0881584
:100AD0009905AA05BB0528F48191DF0112978C9333
:100AE000F0CFCA01840D951DF801E80FF91FDF0151
:100AF00011971C929A0121503109020F131FD7013F
:100B000019961C930E9318972181428150E060E062
:100B100070E0BA0155274427522B2081422B2381B4
:100B2000722BF701428753876487758704962C964A
:100B30000FB6F894DEBF0FBECDBFDF91CF911F91EE
:100B40000F91FF90EF90DF90CF90BF90AF909F906C
:100B50008F907F906F905F904F90089588E792E01C
:100B6000089589E992E00895FC01DB014C9150E081
:100B700060E070E0428353836483758311968C91A7
:100B80001197582B428353836483758312968C91FB
:100B90001297682B428353836483758313968C91D9
:100BA0001397782B428353836483758314964C91F7
:100BB000149750E060E070E0468357836087718748
:100BC00015968C911597582B4683578360877187AC
:100BD00016968C911697682B46835783608771878A
:100BE00017968C91782B468357836087718788E0AE
:100BF00090E00895DC01FB0112968C91129780839E
:100C000013968C911397818314968C9114978283F9
:100C100015968C911597838316968C9116978483DD
:100C200017968C911797858318968C9118978683C1
:100C300019968C91878388E090E008950E9477133D
:100C40002F923F924F925F926F927F928F929F92DC
:100C5000AF92BF92CF92DF92EF92FF920F931F93CA
:100C6000CF93DF93CDB7DEB728970FB6F894DEBFEA
:100C70000FBECDBF8C015B01DB018C9111969C9165
:100C800011971296CC901297D12CE12CF12C760171
:100C9000DD24CC24D92AC82A13968C91F82AF8018D
:100CA00082819381A481B5818C159D05AE05BF0518
:100CB00070F4B601660F771F660F771F82859385E4
:100CC0000E94AD12D8011B969C938E931A97F8013F
:100CD000C282D382E482F582D5011796C12CD12C31
:100CE0007601F4E08F2E912C98012A5F3F4FF80196
:100CF0004281538164817581C4010496C416D5066E
:100D0000E606F70680F54C9150E060E070E0742F45
:100D1000662755274427FD013397E0814E2BFD01BF
:100D20003297E0815E2BFD013197E0816E2BF80157
:100D300046835783608771874C01089742855385A6
:100D4000840F951FF9014081518162817381FC01FB
:100D50004083518362837383FFEFCF1ADF0AEF0A68
:100D6000FF0A1496C4CFF401EA0DFB1D20813181E6
:100D7000C280D12CE12CF12C7601DD24CC24D32AA5
:100D8000C22A2381F22A4C01F80184859585A68523
:100D9000B7858C159D05AE05BF0570F4B601660FCD
:100DA000771F660F771F848995890E94AD12D8013D
:100DB00055969C938E935497F801C486D586E68603
:100DC000F78620E030E0C12CD12C7601D801509676
:100DD000F8014485558566857785F501E80DF91D8F
:100DE000C4010496C416D506E606F70648F59180B8
:100DF000428150E060E070E0BA015527442759294C
:100E000090804929E3817E2BF801408B518B628BC6
:100E1000738B4C0184899589FC01E20FF31F4D917E
:100E20005D916D917C9113974083518362837383AD
:100E3000FFEFCF1ADF0AEF0AFF0A2C5F3F4FC8CF40
:100E400020813181C280D12CE12CF12C7601DD246E
:100E5000CC24D32AC22A2381F22A4C01F8018689A4
:100E60009789A08DB18D8C159D05AE05BF0560F4E9
:100E7000B601660F771F848D958D0E94AD12D80143
:100E80005D969C938E935C97F801C68AD78AE08E14
:100E9000F18E412C512C32011801FAE12F0E311C38
:100EA000F80186899789A08DB18D481659066A0682
:100EB0007B0608F05AC0B501680D791DCE01019678
:100EC0000E94D70294012C5F3F4FC980DA80EB80EB
:100ED000FC80C901032E000CAA0BBB0BAC01BD01A9
:100EE0004C0D5D1D6E1D7F1D4D835E836F83788766
:100EF000F501E20FF31FAF014A195B09CA01A0E037
:100F0000B0E04D815E816F81788584179507A607D3
:100F1000B70728F44191DF0112974C93ECCFC90138
:100F20008C0D9D1DF501E80FF91F3197108221509E
:100F300031092A0D3B1DD8015B963C932E935A979D
:100F40004C01C201880F991F5C96ED91FC915D9751
:100F5000E80FF91FD1018D919C9191838083BFEFA0
:100F60004B1A5B0A6B0A7B0A9BCFC40128960FB60B
:100F7000F894DEBF0FBECDBFDF91CF911F910F91CF
:100F8000FF90EF90DF90CF90BF90AF909F908F90A9
:100F90007F906F905F904F903F902F9008952F9289
:100FA0003F924F925F926F927F928F929F92AF92F9
:100FB000BF92CF92DF92EF92FF920F931F93CF9346
:100FC000DF93CDB7DEB7A8970FB6F894DEBF0FBE9C
:100FD000CDBF8C010E94E8012B013C0198012554F2
:100FE0003D4F3C8B2B8BF90180819181A281B38194
:100FF000A3019201281B390B4A0B5B0BDA01C901D3
:10100000893F9A42A105B10510F035971082780109
:1010100044E5E41A4DEFF40AD7018D919C91892B98
:1010200079F0F801E154FD4F80819181A281B38173
:1010300084159505A605B70518F4F70111821082ED
:1010400098012C543D4F388B2F87A80140555D4F98
:101050005A8B498BC80148969E8B8D8BD801AA5418
:10106000BD4FBA8FA98FF801EC53FD4FF8A3EF8F56
:10107000215F3F4F3AA329A3180132E5231A3DEF20
:10108000330A4E5F5F4F588F4F8B89559D4F9CA3FE
:101090008BA3A30192012C5E3F4F4F4F5F4F2DA3B7
:1010A0003EA34FA358A7F80184899589A689B789DB
:1010B000892B8A2B8B2B81F4D80112968D919C91D0
:1010C0001397DC01ED91FC910284F385E02D0995E5
:1010D0009C0197FF14C08BC20E94E801DC01CB0188
:1010E00084199509A609B709F80184889588A68806
:1010F000B78888169906AA06BB06F0F69FC2AF8588
:10110000B8898D919C911197820F931F8D939C9319
:10111000F7014081518147305105D1F4AF89B88D35
:101120008D919C911197AC014F5F5F4F4D935C93F4
:10113000F801E80FF91F208FF1018081918101975B
:1011400091838083892B09F0AECF88E090E032C094
:101150004115510539F52F3F310589F481E090E0C3
:10116000F701918380832DA13EA14FA158A5ABA18A
:10117000BCA12D933D934D935C93139794CF0E9404
:10118000E801DC01CB0184199509A609B709893862
:101190009341A105B10508F486CFF801EA54FD4F4B
:1011A00010824CC241305105A9F42E3F310531F473
:1011B00082E090E0D7018D939C9375CFF701118267
:1011C0001082A98DBA8D8C9181116DCFC8010E94BA
:1011D0009F0269CF4230510589F4F10131832083A8
:1011E000AF89B88D1D921C9283E090E0F701918346
:1011F0008083AF85B8892D933C9355CF43305105FB
:1012000061F4322F2227F10180819181280F391F4B
:101210003183208384E090E0CDCF4430510581F4C8
:1012200060E071E00E9443128F3F910531F485E048
:1012300090E0F7019183808336CF1182108233CF03
:101240004530510571F4E989FA893183208386E0BC
:1012500090E0D7018D939C93EF85F88931832083AB
:1012600022CF46305105A1F4322F2227A989BA890D
:101270008D919C911197280F391F2D933C9387E0F6
:1012800090E0F70191838083D1018D919C915ACF99
:101290004830510509F007CFF7011182108260E054
:1012A00071E00E9443128F3F910509F0FCCEA9899D
:1012B000BA898D919C91009709F0C8C0C8010E941D
:1012C0009F028AE291E09A8389831C821B8286EBCB
:1012D00091E09E838D8398878F839A8789871B8669
:1012E0001C861D861E865801B8EBAB1ABDEFBB0AE3
:1012F0006801E6E8CE1AEDEFDE0AD501ED91FC912A
:101300003097D9F1848195819C838B8380819181F1
:101310009E838D8382819381DC01ED91FC91048019
:10132000F581E02D099598878F83D501ED91FC918A
:1013300082819381DC01ED91FC910680F781E02DA3
:1013400009959A87898728E131E040E050E02B87B2
:101350003C874D875E87D8018D919C91F501A081D6
:10136000B18118966D917C911997DC01ED91FC91FA
:10137000AE014F5F5F4FC8010995B2E0AB0EB11CE3
:10138000AC14BD0409F0B9CF98E1892E9924939447
:10139000A12CB12CF601A081B1811097E1F1129638
:1013A0008D919C9113979C838B8314968D919C9126
:1013B00015979E838D83ED91FC9111970480F581A3
:1013C000E02DCD01099598878F83D6018D919C9151
:1013D000DC01ED91FC910680F781E02D09959A875B
:1013E00089878B869C86AD86BE86D801ED91FC915F
:1013F00020803180F60180819181DC01ED91FC91AA
:101400000280F381E02D0995AE014F5F5F4FBC0173
:10141000C801F1010995F2E0CF0ED11CCE14DF0412
:1014200009F0B8CFF801EA54FD4F81E0808331968E
:101430004082518262827382AB89BC894D925D92F7
:101440006D927C9213978FEF9FEFFDC08A309105CC
:1014500009F0A2C086E391E09A8389831B821C82F3
:101460001D821E821F82188619861A860E94E80134
:10147000F80180849184A284B3849B01AC01281973
:1014800039094A095B0949015A016D897E89CE01F2
:1014900001960E94B405C501B40128EE33E040E096
:1014A00050E00E9457128B809C80AD80BE80820EDF
:1014B000931EA41EB51E8B829C82AD82BE829B01B0
:1014C000AC0160E472E48FE090E00E9433128F8000
:1014D0009884A984BA84DC01CB01880D991DAA1DCA
:1014E000BB1D8F839887A987BA870E94E8018F80E8
:1014F0009884A984BA8436E3931A35E6A30A34ECB7
:10150000B30A28EE33E040E050E00E9457122B8FE0
:101510003C8F4D8F5E8F9B01AC0160E472E48FE0E5
:1015200090E00E943312A5019401261B370B480B53
:10153000590BCA01B9018B809C80AD80BE8031E01F
:10154000831A9108A108B1082B8D3C8D4D8D5E8DBD
:10155000821A930AA40AB50A20E03AEC4AE95BE34E
:101560000E945712820E931EA41EB51ED8011C960F
:101570008D929D92AD92BC921F97F801608B718BFA
:10158000828B938B0E94E801AB89BC896D937D931C
:101590008D939C93139787CD8630910559F46D896F
:1015A0007E898F8D98A10E94200681E0E9A1FAA191
:1015B000808379CD8B30910521F4A98DBA8D1C9251
:1015C00072CDFC01E752FF4FEE0FFF1FE00FF11F3E
:1015D00080819181009709F466CDDC01ED91FC9149
:1015E0000190F081E02D6D897E8909955CCDF8012F
:1015F000EA54FD4F8081882321F17801B9E4EB1A88
:10160000BDEFFB0AF70180819181A281B381A30123
:101610009201281B390B4A0B5B0BDA01C901853C8F
:101620009940A105B10568F0C8010E949F02D70149
:101630004D925D926D927C92139703C08EEF9FEF57
:1016400002C080E090E0A8960FB6F894DEBF0FBE0F
:10165000CDBFDF91CF911F910F91FF90EF90DF9061
:10166000CF90BF90AF909F908F907F906F905F9042
:101670004F903F902F9008954F925F926F927F927C
:10168000AF92BF92CF92DF92EF92FF920F931F9390
:10169000CF93DF93EC017B018A81FB0180838B81F7
:1016A00081838C8182838D818383DB01179640E067
:1016B00050E0BA01E4E0F0E04A805B806C807D801D
:1016C0008F010C5F1F4F4415550566057705C0F463
:1016D0008A859B85E80FF91F3497D08021819281FC
:1016E0008381FD013397D082319620833196908398
:1016F0008C93F8014F5F5F4F6F4F7F4F1496DCCF95
:10170000EE0DFF1D8C8580838D8581838E85828380
:101710008F85838380E090E040E050E0BA014C8404
:101720005D846E847F84F701E00FF11F0C5F1F4F13
:101730004415550566057705B8F4AC89BD89A80F31
:10174000B91FCC901196DC90119712963C9112978C
:1017500013962C91C082D182328323834F5F5F4FD7
:101760006F4F7F4F0496DBCF8E8980838F89818373
:10177000888D8283898D8383412C512C32018E89FF
:101780009F89A88DB98D481659066A067B0680F593
:101790005201AA0CBB1CEC8DFD8DEA0DFB1DA08136
:1017A000B181FD0101900020E9F731976F01CA1A5C
:1017B000DB0AA60160E070E0C701800F911F0E9464
:1017C00005030C5F1F4F8C8D9D8DFC01EA0DFB1DE9
:1017D00060817181A601C701800F911F0E947C1357
:1017E0000C0D1D1DFFEF4F1A5F0A6F0A7F0AC7CF4E
:1017F000C801DF91CF911F910F91FF90EF90DF9083
:10180000CF90BF90AF907F906F905F904F90089572
:10181000EF92FF920F931F93CF93DF938C017B0185
:10182000EC018A81FB018193AB81BC81ED010990C0
:101830000020E9F72197CA1BDB0BAE0160E070E0E6
:10184000CF010E940503F80163817481AE01C701D5
:1018500005960E947C13CE010596DF91CF911F91D2
:101860000F91FF90EF900895CF92DF92EF92FF9249
:101870000F931F93CF93DF936C01EB01FC018281E7
:10188000888383818983A481B581FD010190002033
:10189000E9F731978F010A1B1B0BA80160E070E08C
:1018A000CE0102960E940503F60164817581A801AC
:1018B000CE0106960E947C13C8010696F601A68109
:1018C000B781FD0101900020E9F731977F01EA1A05
:1018D000FB0AA70160E070E08C0F9D1F0E940503CA
:1018E000065F1F4FF60166817781A701CE01800F49
:1018F000911F0E947C130E0D1F1DF601A085B1855E
:10190000FD0101900020E9F731977F01EA1AFB0AF7
:10191000A70160E070E0CE01800F911F0E940503D7
:101920000C5F1F4FF60160857185A701CE01800F06
:10193000911F0E947C13C8018E0D9F1DF6016285C8
:10194000438534852585C80FD91F688349833A8329
:101950002B830496DF91CF911F910F91FF90EF9011
:10196000DF90CF9008951F920F920FB60F9211241F
:101970002F933F934F935F936F937F938F939F9397
:10198000AF93BF93EF93FF938DED92E00E942F01F1
:10199000FF91EF91BF91AF919F918F917F916F9147
:1019A0005F914F913F912F910F900FBE0F901F901D
:1019B00018951F920F920FB60F9211242F938F93A9
:1019C0009F93EF93FF93E091ED02F091EE028081FF
:1019D000E091F302F091F40282FD12C090818091B7
:1019E000F6028F5F8F732091F702821751F0E0911A
:1019F000F602F0E0E352FD4F958F8093F60201C0AE
:101A00008081FF91EF919F918F912F910F900FBE49
:101A10000F901F9018951F920F920FB60F921124DE
:101A20002F933F938F939F93AF93BF938091BD026A
:101A30009091BE02A091BF02B091C0023091BC0251
:101A400023E0230F2D3720F40196A11DB11D05C001
:101A500026E8230F0296A11DB11D2093BC0280939E
:101A6000BD029093BE02A093BF02B093C0028091CA
:101A7000C1029091C202A091C302B091C40201962A
:101A8000A11DB11D8093C1029093C202A093C30215
:101A9000B093C402BF91AF919F918F913F912F91CD
:101AA0000F900FBE0F901F9018951F920F920FB6B8
:101AB0000F9211242F933F934F935F936F937F93D4
:101AC0008F939F93AF93BF93EF93FF93E0910201A6
:101AD000F09103010995FF91EF91BF91AF919F9113
:101AE0008F917F916F915F914F913F912F910F90C7
:101AF0000FBE0F901F9018951F920F920FB60F9266
:101B000011242F933F934F935F936F937F938F9302
:101B10009F93AF93BF93EF93FF93E0910001F091F8
:101B200001010995FF91EF91BF91AF919F918F9125
:101B30007F916F915F914F913F912F910F900FBEC9
:101B40000F901F9018951092E0021092DF0288EE1D
:101B500093E0A0E0B0E08093E1029093E202A093D2
:101B6000E302B093E4028EE491E09093DE0280936E
:101B7000DD0285EC90E09093EA028093E90284EC28
:101B800090E09093EC028093EB0280EC90E09093D5
:101B9000EE028093ED0281EC90E09093F00280934E
:101BA000EF0282EC90E09093F2028093F10286ECD7
:101BB00090E09093F4028093F3021092F602109258
:101BC000F7021092F8021092F9028CE691E09093DD
:101BD0008B0380938A038DED92E090938D03809325
:101BE0008C0380E091EEA0E0B0E080938E039093B0
:101BF0008F03A0939003B09391031092400680E668
:101C000091E090934F0680934E06109250061092EA
:101C100051061092520610925306109259061092D5
:101C2000580610925A0610925B0610925C061092AB
:101C30005D0610926306109262061092640610927E
:101C40006506109266061092670610926B06109257
:101C50006A06E2EDF5E01192119286E0E430F807B1
:101C6000D1F7E4E0F6E01192119286E0E633F8074E
:101C7000D1F7E2EAF3E0119284E0EA3BF807D9F702
:101C8000EAEBF4E0119285E0E23DF807D9F7109213
:101C90009E0310929F031092A0031092A10386E767
:101CA00091E09093850380938403109286031092B1
:101CB0008703109288031092890387EA92E0909339
:101CC0007B0380937A0384E893E090937D03809371
:101CD0007C0310928303109282030895789484B554
:101CE000826084BD84B5816084BD85B5826085BD18
:101CF00085B5816085BD80916E00816080936E00A6
:101D00001092810080918100826080938100809197
:101D10008100816080938100809180008160809348
:101D200080008091B10084608093B1008091B00008
:101D300081608093B00080917A00846080937A0003
:101D400080917A00826080937A0080917A0081602D
:101D500080937A0080917A00806880937A00109254
:101D6000C100C0908E03D0908F03E0909003F0905C
:101D70009103C0918C03D0918D0360E079E08DE3F5
:101D800090E0A70196010E945712DA01C90101975C
:101D9000A109B109B695A795979587959C01E88902
:101DA000F98982E08083C11481EED806E104F10450
:101DB00021F02115A0E13A07A8F0E889F9891082FD
:101DC00060E874E88EE190E0A70196010E94571246
:101DD000DA01C9010197A109B109B695A7959795AF
:101DE00087959C01EC85FD853083EE85FF852083FA
:101DF000188EEC89FD8986E08083EA89FB898081E1
:101E000080618083EA89FB89808188608083EA8998
:101E1000FB89808180688083EA89FB8980818F7D4E
:101E2000808310923706109236061092390610926F
:101E3000380610923D0610923C0610923B06109216
:101E40003A06E2EDF5E080E090E021913191232B1C
:101E5000B1F4FC01EE0FFF1FEE52FA4F2AE733E018
:101E60003183208383589F4F90937F0380937E0319
:101E70008AE893E0909381038093800304C00196E5
:101E80008931910511F782E00E947D0085EA90E09A
:101E90009093010180930001809169008C7F8260A2
:101EA00080936900E89A83E00E947D008FEA90E0C9
:101EB000909303018093020180916900837F886081
:101EC00080936900E99A8091DB029091DC02909303
:101ED000DA028093D9028091D7029091D802909330
:101EE000D6028093D5020E94C3014B015C0184EFAE
:101EF000C82EDD24D394E12CF12C0E94C301DC0117
:101F0000CB0188199909AA09BB09883E9340A1050C
:101F1000B10558F0B1E0CB1AD108E108F10828EE7C
:101F2000820E23E0921EA11CB11CC114D104E10455
:101F3000F10419F76091DB027091DC028091D90203
:101F40009091DA02681B790B072E000C880B990B15
:101F50000E9416116B017C016093D1027093D20232
:101F60008093D3029093D4028091D7029091D802AB
:101F70002091D5023091D602821B930BBC01990FA0
:101F8000880B990B0E9416114B015C016093CD02E6
:101F90007093CE028093CF029093D00220E030E085
:101FA0004AEF53E4C701B6010E94A21021E338E0D2
:101FB0004CE45FE30E94C6119B01AC010E9431100A
:101FC0006B017C016093C9027093CA028093CB02BB
:101FD0009093CC0220E030E04AEF53E4C501B40115
:101FE0000E94A21021E338E04CE45FE30E94C61196
:101FF0009B01AC010E9431109B01AC016093C502B2
:102000007093C6028093C7029093C802C701B601BD
:102010000E94311020E030E040E05FE30E94C611F2
:10202000609386037093870380938803909389035A
:102030008091800390918103DC01ED91FC9160918E
:102040007E0370917F030190F081E02D44E853E01E
:1020500009958AE893E00E94CF070E94B90133CF27
:102060005058BB27AA270E9448100C948C110E943C
:102070007E1138F00E94851120F039F49F3F19F449
:1020800026F40C947B110EF4E095E7FB0C9475118B
:10209000E92F0E949D1158F3BA176207730784074E
:1020A000950720F079F4A6F50C94BF110EF4E09595
:1020B0000B2EBA2FA02D0B01B90190010C01CA0102
:1020C000A0011124FF27591B99F0593F50F4503EAD
:1020D00068F11A16F040A22F232F342F4427585F9F
:1020E000F3CF469537952795A795F0405395C9F7B7
:1020F0007EF41F16BA0B620B730B840BBAF091506F
:10210000A1F0FF0FBB1F661F771F881FC2F70EC00D
:10211000BA0F621F731F841F48F4879577956795E0
:10212000B795F7959E3F08F0B0CF9395880F08F0CC
:102130009927EE0F9795879508950E94511108F4FD
:1021400081E008950E94B6100C948C110E948511B4
:1021500058F00E947E1140F029F45F3F29F00C9462
:10216000751151110C94C0110C947B110E949D119A
:1021700068F39923B1F3552391F3951B550BBB27B6
:10218000AA2762177307840738F09F5F5F4F220FFB
:10219000331F441FAA1FA9F335D00E2E3AF0E0E8F2
:1021A00032D091505040E695001CCAF72BD0FE2F3C
:1021B00029D0660F771F881FBB1F261737074807D0
:1021C000AB07B0E809F0BB0B802DBF01FF27935888
:1021D0005F4F3AF09E3F510578F00C9475110C94C6
:1021E000C0115F3FE4F3983ED4F3869577956795E9
:1021F000B795F7959F5FC9F7880F911D96958795BD
:1022000097F90895E1E0660F771F881FBB1F6217DB
:1022100073078407BA0720F0621B730B840BBA0B99
:10222000EE1F88F7E0950895E89409C097FB3EF407
:1022300090958095709561957F4F8F4F9F4F992313
:10224000A9F0F92F96E9BB279395F6958795779591
:102250006795B795F111F8CFFAF4BB0F11F460FF51
:102260001BC06F5F7F4F8F4F9F4F16C0882311F0A9
:1022700096E911C0772321F09EE8872F762F05C0BD
:10228000662371F096E8862F70E060E02AF09A9558
:10229000660F771F881FDAF7880F9695879597F94D
:1022A0000895990F0008550FAA0BE0E8FEEF1616E7
:1022B0001706E807F907C0F012161306E407F5073A
:1022C00098F0621B730B840B950B39F40A2661F0AE
:1022D000232B242B252B21F408950A2609F4A14051
:1022E000A6958FEF811D811D089597F99F6780E85E
:1022F00070E060E008959FEF80EC089500240A9458
:102300001616170618060906089500240A941216D0
:102310001306140605060895092E0394000C11F403
:10232000882352F0BB0F40F4BF2B11F460FF04C0B0
:102330006F5F7F4F8F4F9F4F089557FD9058440F09
:10234000551F59F05F3F71F04795880F97FB991F14
:1023500061F09F3F79F087950895121613061406D1
:10236000551FF2CF4695F1DF08C01616170618065E
:10237000991FF1CF86957105610508940895E89439
:10238000BB2766277727CB0197F908950E94D911BB
:102390000C948C110E947E1138F00E94851120F05F
:1023A000952311F00C9475110C947B1111240C944D
:1023B000C0110E949D1170F3959FC1F3950F50E0DD
:1023C000551F629FF001729FBB27F00DB11D639FE7
:1023D000AA27F00DB11DAA1F649F6627B00DA11D8D
:1023E000661F829F2227B00DA11D621F739FB00D33
:1023F000A11D621F839FA00D611D221F749F3327A3
:10240000A00D611D231F849F600D211D822F762F3B
:102410006A2F11249F5750409AF0F1F088234AF018
:10242000EE0FFF1FBB1F661F771F881F9150504084
:10243000A9F79E3F510580F00C9475110C94C011C2
:102440005F3FE4F3983ED4F3869577956795B7950B
:10245000F795E7959F5FC1F7FE2B880F911D969525
:10246000879597F90895DB018F939F930E947912C6
:10247000BF91AF91A29F800D911DA39F900DB29F20
:10248000900D1124089597FB072E16F4009407D0A1
:1024900077FD09D00E94841207FC05D03EF4909588
:1024A00081959F4F0895709561957F4F0895A1E2A2
:1024B0001A2EAA1BBB1BFD010DC0AA1FBB1FEE1FBE
:1024C000FF1FA217B307E407F50720F0A21BB30B09
:1024D000E40BF50B661F771F881F991F1A9469F785
:1024E00060957095809590959B01AC01BD01CF01E1
:1024F00008950E949E12A59F900DB49F900DA49FD9
:10250000800D911D11240895AA1BBB1B51E107C02A
:10251000AA1FBB1FA617B70710F0A61BB70B881F73
:10252000991F5A95A9F780959095BC01CD01089502
:10253000EE0FFF1F0590F491E02D0994A29FB001CA
:10254000B39FC001A39F700D811D1124911DB29FE7
:10255000700D811D1124911D0895A0E0B0E0E3EB02
:10256000F2E10C94B614EC01009721F4CB010E9427
:102570008513B8C0FC01E60FF71F9C0122503109FA
:10258000E217F30708F4ACC0D9010D911C91119723
:1025900006171707B0F00530110508F49FC0C801F1
:1025A00004978617970708F499C002501109061B73
:1025B000170B019311936D937C93CF010E941A1412
:1025C0008DC05B01A01AB10A4C01800E911EA09132
:1025D0006E06B0916F0640E050E0E12CF12C1097B0
:1025E00009F44AC0A815B905D1F56D907C901197F2
:1025F000630182E0C80ED11CCA14DB0480F1A30180
:102600004A195B096A0182E0C80ED11C1296BC907F
:1026100012971396AC91B5E0CB16D10440F0B2827C
:10262000A38351834083D9016D937C930AC00E5FCD
:102630001F4FC301800F911FF90191838083EB2D00
:10264000FA2FE114F10431F0D7011396FC93EE93C5
:10265000129744C0F0936F06E0936E063FC08D91D1
:102660009C9111974817590708F4AC017D01129607
:102670000D90BC91A02DB3CF80916C0690916D060A
:1026800088159905E1F446175707C8F480910401AD
:1026900090910501009741F48DB79EB740910801D4
:1026A00050910901841B950BE817F907C8F4F093C2
:1026B0006D06E0936C06F901718360830FC0CB0156
:1026C0000E9485137C01009759F0A801BE010E9469
:1026D0007C13CE010E941A14C70104C0CE0102C0AF
:1026E00080E090E0CDB7DEB7EEE00C94D21481E04C
:1026F00090E0F8940C94E914FB01DC0102C0019015
:102700000D9241505040D8F70895CF93DF93823017
:10271000910510F482E090E0E0916E06F0916F0672
:1027200020E030E0C0E0D0E0309711F140815181ED
:1027300048175907C0F04817590761F482819381FF
:10274000209719F09B838A832BC090936F06809308
:102750006E0626C02115310519F04217530718F4EB
:102760009A01BE01DF01EF010280F381E02DDCCF91
:102770002115310509F1281B390B2430310590F45E
:1027800012968D919C9113976115710521F0FB01B3
:102790009383828304C090936F0680936E06FD013D
:1027A000329644C0FD01E20FF31F819391932250B2
:1027B00031092D933C933AC020916C0630916D06FF
:1027C000232B41F4209106013091070130936D06CF
:1027D00020936C06209104013091050121153105EB
:1027E00041F42DB73EB74091080150910901241BD7
:1027F000350BE0916C06F0916D06E217F307A0F43B
:102800002E1B3F0B2817390778F0AC014E5F5F4F46
:102810002417350748F04E0F5F1F50936D06409305
:102820006C068193919302C0E0E0F0E0CF01DF916C
:10283000CF9108950F931F93CF93DF93009709F4DF
:102840008CC0FC0132971382128200916E061091A7
:102850006F060115110581F420813181820F931FCC
:1028600020916C0630916D062817390779F5F093A1
:102870006D06E0936C0671C0D80140E050E0AE17E1
:10288000BF0750F412962D913C911397AD0121157D
:10289000310509F1D901F3CF9D01DA013383228398
:1028A00060817181860F971F8217930769F4EC018D
:1028B00028813981260F371F2E5F3F4F31832083B8
:1028C0008A819B8193838283452B29F4F0936F0641
:1028D000E0936E0642C01396FC93EE931297ED01BF
:1028E000499159919E01240F351FE217F30771F4A6
:1028F00080819181840F951F029611969C938E93EF
:102900008281938113969C938E931297E0E0F0E07E
:10291000D80112968D919C911397009719F0F801A8
:102920008C01F6CF8D919C9198012E5F3F4F820FC5
:10293000931F20916C0630916D062817390769F4B2
:10294000309729F410926F0610926E0602C013821F
:10295000128210936D0600936C06DF91CF911F9148
:102960000F9108952F923F924F925F926F927F92B4
:102970008F929F92AF92BF92CF92DF92EF92FF928F
:102980000F931F93CF93DF93CDB7DEB7CA1BDB0B3B
:102990000FB6F894DEBF0FBECDBF09942A883988E0
:1029A00048885F846E847D848C849B84AA84B984E7
:1029B000C884DF80EE80FD800C811B81AA81B981F3
:1029C000CE0FD11D0FB6F894DEBF0FBECDBFED0107
:0629D0000895F894FFCF0A
:1029D600F401F401000070068000726F7373657273
:1029E60069616C5F6D7367732F526571756573747A
:1029F600506172616D0000000000340CBE04BB041F
:102A0600B80400000000FA05B405B105AE050000E3
:102A16000000080C60045D045A0400000000500128
:102A2600B900E80097011901F7000B01000000004A
:102A36003C0B20065704540400000000FA01CF079F
:102A4600F50100000000D2032803250322034D658B
:102A560073736167652066726F6D2064657669635E
:102A6600652064726F707065643A206D657373617A
:102A76006765206C6172676572207468616E20629A
:102A860075666665722E006664623238323130626F
:102A9600666139643763393131343632363031372D
:102AA60038643961353834007374645F6D736773E5
:102AB6002F466C6F6174363400396630653938627A
:102AC6006461363539383139383664646635336190
:102AD600666137613430653439003131616264379B
:102AE6003331633235393333323631636436313814
:102AF6003362643132643632393500726F7373650E
:102B06007269616C5F6D7367732F4C6F670030611C
:102B1600643531663838666334343839326638633A
:102B26003130363834303737363436303035007257
:102B36006F7373657269616C5F6D7367732F546F22
:102B4600706963496E666F00636437313636633782
:102B560034633535326333313166626363326665B9
:102B66003561376263323839007374645F6D736739
:102B7600732F54696D65002F6C6566745F776865A1
:0A2B8600656C2F7374617465000024
:00000001FF
